:020000040800F2
:10000000F81D002001010008A31C0008CD180008FD
:10001000A11C0008E7010008973E0008000000004E
:100020000000000000000000000000009D26000805
:10003000E901000800000000B91F00089F26000821
:100040001B0100081B0100081B0100081B01000820
:100050001B0100081B0100081B0100081B01000810
:100060001B0100081B0100081B0100081B01000800
:100070001B0100081B0100081B0100081B010008F0
:100080001B0100081B0100081B0100081B010008E0
:10009000213E00081B0100081B0100081B0100088D
:1000A0001B0100081B0100081B0100081B010008C0
:1000B0001B0100081B0100081B0100081B010008B0
:1000C0001B0100081B0100081B0100081B010008A0
:1000D0001B0100081B0100081B0100081B01000890
:1000E0001B0100081B0100081B010008DFF80CD0F1
:1000F00000F03CF800480047F3410008F81D0020DC
:100100000648804706480047FEE7FEE7FEE7FEE7B1
:10011000FEE7FEE7FEE7FEE7FEE7FEE71927000839
:10012000ED00000840EA01039B0703D009E008C97D
:10013000121F08C0042AFAD203E011F8013B00F8AC
:10014000013B521EF9D27047D2B201E000F8012BF8
:10015000491EFBD270470022F6E710B513460A4647
:1001600004461946FFF7F0FF204610BD064C074D28
:1001700006E0E06840F0010394E807009847103477
:10018000AC42F6D3FFF7B6FF604200088042000899
:1001900070B58C1810F8015B15F0070301D110F849
:1001A000013B2A1106D110F8012B03E010F8016B76
:1001B00001F8016B5B1EF9D12B0705D40023521EF9
:1001C0000DD401F8013BFAE710F8013BCB1A921C61
:1001D00003E013F8015B01F8015B521EF9D5A1425F
:1001E000D8D3002070BDFEE7704772B6FEE700006E
:1001F0002DE9F84FDFF8B891002409F1040A0AF15B
:10020000040B23460F270BF1040EC9E00125A5407E
:100210002A40AA427DD1674ED1F804C0ACEB060853
:10022000B44532D014DCBCF1030F3AD009DCBCF188
:10023000000F2AD0BCF1010F1CD0BCF1020F31D14C
:100240001DE0BCF1110F17D0BCF1120F2AD119E03B
:10025000B8F5881F19D006DCB8F5803F15D0B8F581
:10026000801F1FD111E0B8F5001F0ED0B8F5041F94
:1002700018D10AE0CB6815E0CB681B1D12E0CB68F3
:1002800008330FE0CB680C330CE08B682BB1012BEB
:100290004FF0080303D0456104E0042302E0056148
:1002A00000E00023FF2A01D8064601E000F1040621
:1002B0004FEA840501D9A5F12005D6F8008007FA98
:1002C00005FC28EA0C0803FA05F548EA0508C6F813
:1002D00000804D68ED0062D5374DAE6946F00106ED
:1002E000AE61AD6924F0030605F001050095334DBC
:1002F00006EB050CDCF80850A607360F07FA06F8DF
:1003000025EA0805DFF8B880404503D14FF0000822
:1003100017E044E0DFF8AC80404502D14FF001081F
:100320000FE0DFF8A480404502D14FF0020808E05A
:10033000DFF89880404502D14FF0030801E04FF00C
:10034000040808FA06F848EA0508CCF808804D6861
:10035000D9F80060ED034D4601D5164300E0964301
:100360002E604D68DAF80060AD03554601D516439E
:1003700000E096432E604D68DBF80060ED025D46BC
:1003800001D5164300E096432E604D68DEF800600C
:10039000AD02754601D5164300E096432E60641CFD
:1003A0000D682A46E5407FF431AFBDE8F88F0000C4
:1003B0000004014000001110001002400000014044
:1003C00000080140000C01400010014000140140F1
:1003D0000AB1016170470904FBE700000148806829
:1003E00070470000800000200248816802781144B4
:1003F0008160704780000020074810B5016841F017
:1004000010010160032000F075F8002000F006F8EC
:1004100000F024F8002010BD0020024070B50D4D02
:1004200004464FF47A712878B1FBF0F00A49096864
:10043000B1FBF0F001F0CDF948B9102C07D2002241
:100440002146501E00F036F800206C6070BD01207F
:1004500070BD0000800000208C0000200C4808B512
:10046000816941F001018161816901F0010100911F
:10047000C16941F08051C161C06900F080500090B5
:100480000448416821F0E06141F00071416008BD1D
:100490000010024000000140002809DB00F01F02AC
:1004A000012191404009800000F1E020C0F80011D6
:1004B00070470000F0B40E4B1B680C46C3F30223D8
:1004C000C3F10705042D00D90425191D072901D200
:1004D000002300E0DB1E012606FA05F1491E21403B
:1004E00099409E40761E16403143F0BC03F062BE38
:1004F0000CED00E0064900F0070208684FF6FF0324
:10050000184040EA0220034A104308607047000088
:100510000CED00E00000FA0510B50C0607D501F05F
:10052000070101EB810100EBC100283005E001EB80
:10053000810100EBC10000F5B47099B232B1012223
:1005400002730181190C4181002010BD0022027349
:10055000C180F9E7704701EB810200EBC202D0F8DD
:10056000E802D26B02F0B9BA01EB810200EBC202E1
:10057000D0F8E802D2F87C2102F012BB70B5044634
:100580000B0601F0070000EB800104EBC1014FF006
:1005900001024FF0000503D581F82920283103E03E
:1005A00081F8695101F5B471087094F8A802012826
:1005B00008D084F8A822206803F02CF884F8A85208
:1005C000002070BD022070BD70B5044601F00F0020
:1005D0006268904201D9012070BD0B0601F007004E
:1005E00000EB800104EBC1014FF001024FF0000568
:1005F00003D581F82920283103E081F8695101F5FC
:10060000B4718D70087094F8A802012808D084F89D
:10061000A822206803F09BF884F8A852002070BD3F
:10062000022070BD2DE9F05F04685FEA424C0B7850
:100630008D69B4F850C04FF000064BF68F7948F240
:10064000800A48F68F7B48F2C00E4FF480672AD5A7
:100650004FF0020808EBC308C44407EB4C07E45B07
:10066000C4F30904A54203D32D1B8D6101D00BE017
:100670008E61066836F8235005EA090585F40055B1
:1006800045EA0A0526F82350520609D50D78036875
:1006900033F8252002EA0B0242EA0E0223F8252055
:1006A00084B30A8929E04FF0060808EBC308C44464
:1006B00007EB4C07E45BC4F30904A54203D32D1BED
:1006C0008D6101D00BE08E61066836F8235005EA93
:1006D000090585F4005545EA0A0526F82350520617
:1006E00009D40B78056835F8232002EA0B0242EAA8
:1006F0000E0225F823202CB14A8949690068234657
:1007000003F098FB2046BDE8F09F2DE9F05F054619
:1007100000680C465FEA426C16468B692278B0F896
:1007200050C048F68F774CF280094FF6FF7B4FF4AC
:10073000004E4FF4806A4FF000017BD54FF0020865
:1007400008EBC208E0440AEB480C30F80C00C0F398
:100750000900834211D91B1AA3610FD0730407D576
:100760002E6836F822303B4043EA090326F822304F
:1007700094F82420012A50D04EE1A161607810B194
:10078000012813D01AE02868B0F85030184400EB64
:100790000210B0F8042422F4F842A0F80424B0F8BF
:1007A000042442F40042A0F8042407E02868B0F8CA
:1007B0005030184400EB0210A0F804146278286846
:1007C00012B1012A11D018E0B0F850100844217875
:1007D00000EB0110B0F80C1421F4F841A0F80C144F
:1007E000B0F80C1441F4004105E0B0F8502010447A
:1007F000227800EB0210A0F80C1421782846FFF7AD
:10080000AAFE7004B8D521782A6832F82100384051
:1008100040EA090022F82100FEE0626902446261B8
:10082000E2690244E2612369226A9A4203D31846CC
:10083000111A04E038E084F824100AB1104621624D
:10084000617811B1012923D02BE02968B1F850203B
:100850001144227801EB021101F2044148B13E2813
:100860000FD84208C30700D0521C0BEA82220A802C
:1008700017E00A8822F4F8420A800A8842F400420B
:10088000F5E74209C30600D1521E4EEA8222EEE786
:100890002968B1F850201144227801EB0211A1F827
:1008A000040483B22289B3E04FF0060808EBC208C3
:1008B000E0440AEB480C30F80C00C0F30900834216
:1008C00011D31B1AA3610FD0730407D42E6836F816
:1008D00022303B4043EA090326F8223094F82420D2
:1008E000012A50D098E0A161607810B1012813D09E
:1008F0001AE02868B0F85030184400EB0210B0F845
:10090000042422F4F842A0F80424B0F8042442F4A9
:100910000042A0F8042407E02868B0F850301844DA
:1009200000EB0210A0F804146278286812B1012AC2
:1009300011D018E0B0F850100844217800EB0110F5
:10094000B0F80C1421F4F841A0F80C14B0F80C1411
:1009500041F4004105E0B0F850201044227800EB4B
:100960000210A0F80C1421782846FFF7F4FD70045B
:1009700052D42278296831F82200384040EA090030
:1009800021F8220048E0626902446261E26902449F
:10099000E2612369226A9A4203D31846111A21623E
:1009A00004E00AB11046216284F8241062782968B4
:1009B00012B1012A22D029E0B1F850201144227846
:1009C00001EB021101F20C4148B13E280FD8420858
:1009D000C30700D0521C0BEA82220A8016E00A8864
:1009E00022F4F8420A800A8842F40042F5E74209FC
:1009F000C30600D1521E4EEA8222EEE7B1F8502023
:100A00001144227801EB0211A1F80C04628983B22F
:100A10006169286803F02CFA21782A6832F82100ED
:100A200048F6BF73184080F0300048F28003184346
:100A300022F821000020BDE8F09F10B5044690F890
:100A4000A80201280AD0012084F8A802080607D5C8
:100A500001F00701206803F0E0F904E0022010BD76
:100A6000206803F0D8F9002084F8A80210BD01F036
:100A7000070101EB810100EBC100D0F88401704750
:100A80002DE9F04104460F0601F0070000EB80015C
:100A900004EBC1014FF001064FF0000503D581F8CA
:100AA0002960283103E081F8695101F5B4710870BB
:100AB0000A61CB704A7802B1C881022B00D10D7156
:100AC00094F8A802012809D084F8A862206802F0EE
:100AD00073FC284684F8A852BDE8F0810220FBE7A9
:100AE00070B50C4601F0070505EB850100EBC1016F
:100AF000C1E95F230022C1F8842181F8692181F8CE
:100B0000685101F5B4716207006802F075FE0020BB
:100B100070BD70B504460D4601F00700616888425B
:100B200001D9012070BD29064FF000064FF00102E7
:100B300007D500EB800104EBC10181F829202831A1
:100B400007E005EB850104EBC10181F8696101F55E
:100B5000B4718A70087094F8A802012807D084F84C
:100B6000A822206802F02FFE680702D006E00220CB
:100B700070BD04F52C71206802F0E7FD84F8A862CE
:100B8000002070BD70B50C4601F0070505EB85012E
:100B900000EBC101C1E90F23012281F84C208B64D5
:100BA00000234B6481F8292001F8285F6207006860
:100BB00002F022FE002070BD1FB50446006803F05D
:100BC00035F9000402D5204601F06CF8206803F0E6
:100BD0002DF940050CD5206830F8441F21F48061C0
:100BE0000180204600F01EF90021204600F035F972
:100BF000206803F01BF9400405D5206830F8441F35
:100C000021F480410180206803F010F9800405D5AB
:100C1000206830F8441F21F400510180206803F05F
:100C200005F9C00414D5206830F8401F21F00401F4
:100C30000180206830F8401F21F008010180204623
:100C400000F003F9206830F8441F21F4805101803E
:100C5000206803F0EBF800053ED5226800206946C5
:100C600032F8203021F81030401CC0B20828F7D3E9
:100C700032F8400F40F001001080206830F8402F1B
:100C800022F0010202802068B0F844205205FBD512
:100C900030F8442F22F4806202800020236831F86B
:100CA000102023F82020401CC0B20828F6D320686A
:100CB00030F8401F41F008010180206830F8441FDF
:100CC00021F400610180206830F8401F41F00401E8
:100CD0000180204600F0F6F8206803F0A7F88005B0
:100CE00008D5206830F8441F21F4007101802046A7
:100CF00000F0AFF8206803F099F8C00505D520682A
:100D000030F8441F21F4807101801FBD2DE9F041AE
:100D100086B0040004D094F8A902002520B108E0B0
:100D2000012006B0BDE8F08184F8A852204600F00A
:100D30005BF8032084F8A902206802F0FFFC04F1AC
:100D40001001142288466846FFF7ECF994E80F007A
:100D500002F05EFC0226D0BB0021206803F080F880
:100D6000002001270FE000BF00EB800104EBC10170
:100D700081F8297001F8280FC881CD700D614D618F
:100D8000401CC0B28D6161688142EDD8002011E045
:100D900000EB800104EBC10181F8695181F8680121
:100DA00081F86B51C1F87851C1F87C51401CC0B238
:100DB000C1F8805161688142EAD8142241466846F0
:100DC000FFF7B0F994E80F0002F0AFFC10B184F81F
:100DD000A962A5E784F8245084F8A972206802F07B
:100DE000A2FC00209DE7000008B500680B4988427E
:100DF00012D10B48C16941F40001C161C0690022F0
:100E000000F40000009011461420FFF753FBBDE8EA
:100E100008401420FFF740BB08BD0000005C004004
:100E20000010024070B5044680680125022801D0F8
:100E3000FFF7DBF92946D4F8E80201F09AFFD4F86D
:100E4000E802BDE8704001F056BFD0F8E80201F0BA
:100E50007ABFD0F8E80201F080BF10B5044690F8E0
:100E6000A80201280BD0012084F8A80284F82410DD
:100E7000206802F0F7FF002084F8A80210BD0220CD
:100E800010BDD0F8E82200F52C71104601F07DBFAE
:100E900010B5044690F8A802012810D0012084F86B
:100EA000A802206802F0AEFF01212046FFF752FBA6
:100EB000206802F036FC002084F8A80210BD022051
:100EC00010BD000010B50446D0F8E80201F09CFF08
:100ED000A069002804D00348016841F006010160C0
:100EE00010BD000010ED00E02DE9F8430546007844
:100EF000354CC00754D0E0690026C00008D4E06932
:100F000040F08050E061E069012600F080500090E0
:100F10002E480168C90512D40168804641F48071E9
:100F20000160FFF75BFA074605E000BFFFF756FADE
:100F3000C01B642823D8D8F80000C005F6D5206A65
:100F400010F4407021D0A98801F4407181421CD076
:100F5000206A1F49012220F440700A6000220A60C2
:100F60002062C00711D0FFF739FA074641F28838EE
:100F700008E000BFFFF732FAC11B414502D9032048
:100F8000BDE8F883206A8007F4D5206A696820F4F8
:100F90004070084320621EB1E06920F08050E0619B
:100FA0002878800705D56068A96820F44040084388
:100FB00060602878C00605D56068E96820F4800084
:100FC000084360600020DBE7001002400070004032
:100FD000400442422DE9F0470F46050061D0434EE0
:100FE000306800F00700B84209D2306820F00700EE
:100FF00038433060306800F00700B84251D12868AB
:101000003B4C810712D5400703D5606840F4E0608F
:1010100060602878000703D5606840F46050606025
:101020006068A96820F0F000084360602878C00775
:1010300028D06868012810D02168022810D08907BC
:1010400000292EDA616821F0030101436160FFF796
:10105000C5F9804641F288390DE021688903EFE740
:101060008901EDE7FFF7BAF9A0EB0801494502D97C
:101070000320BDE8F0876068696800F00C00B0EB01
:10108000810FEFD1306800F00700B8420BD930680B
:1010900020F0070038433060306800F00700B842A5
:1010A00001D00120E5E72878400705D56068E968A8
:1010B00020F4E060084360602878000706D5606887
:1010C000296920F4605040EAC100606000F038F8FF
:1010D0006168084AC1F30311515CC84006490860C1
:1010E00006480068FFF79AF90020C2E70020024096
:1010F00000100240304200088C00002084000020D4
:101100000448054900684968044AC1F30221515C5A
:10111000C84070478C000020001002404042000888
:101120000448054900684968044AC1F3C221515C7A
:10113000C84070478C000020001002404042000868
:1011400012A185B00FC98DE80F0014A0144A0068E1
:1011500004905168134801F00C03042B10D0082BA5
:101160000ED1C1F38343C9031DF803000AD55168AA
:1011700004AAC1F34041515C0A4A5043B0FBF1F06C
:1011800005B0704708494843FAE700000203040528
:10119000060708090A0B0C0D0E0F101001020000C3
:1011A0000010024000127A0000093D002DE9F84FBE
:1011B000040070D02078C04DC00749D06868C0F3E3
:1011C0008100012807D06868C0F38100022809D196
:1011D0006868C00306D52868800339D56068002890
:1011E000E7D035E06068B0F5803F0BD010B1B0F5C6
:1011F000A02F11D0286820F480302860286820F4BF
:10120000802002E0286840F480302860606890B157
:10121000FFF7E4F806460AE0286840F480202860DA
:10122000F0E700BFFFF7DAF8801B642873D828685E
:101230008003F7D50CE0FFF7D1F8064605E000BFC4
:10124000FFF7CCF8801B6428F0D828688003F7D417
:1012500020789A4E80074FF001094FF0000839D5E9
:10126000686810F00C0F07D06868C0F3810002288E
:1012700009D16868C00306D42868800714D520699E
:10128000012808D110E02069B0B1C6F80090FFF73E
:10129000A5F8074605E00AE1FFF7A0F8C01B022801
:1012A000C4D828688007F7D52868616920F0F8005D
:1012B00040EAC10028600DE0C6F80080FFF78EF814
:1012C000074604E0FFF78AF8C01B022823D82868E5
:1012D0008007F7D4207800072CD57948A169D9B1C7
:1012E000C0F80090FFF77AF8074604E0FFF776F8B9
:1012F000C01B02280FD8686A8007F7D571484FF4E1
:10130000FA510068B0FBF1F0009000BF0098411E58
:101310000091FAD20EE080E0C0F80080FFF75EF89E
:10132000074604E0FFF75AF8C01B022875D8686A20
:101330008007F7D42078400760D5E8690027C0000F
:1013400008D4E86940F08050E861E869012700F0BE
:10135000805000905C480168C90513D40168834639
:1013600041F480710160FFF739F8824606E000BF62
:10137000FFF734F8A0EB0A0064284ED8DBF8000031
:10138000C005F5D5E06801280AD008B1052813D0BA
:10139000286A20F001002862286A20F0040002E098
:1013A000286A40F001002862E06841F2883B98B169
:1013B000FFF714F882460BE0286A40F00400286228
:1013C000EEE700BFFFF70AF8A0EB0A0159455AD82B
:1013D000286A8007F6D50CE0FFF700F8824605E0A2
:1013E000FEF7FCFFA0EB0A0159454CD8286A80079C
:1013F000F6D41FB1E86920F08050E861E06988B355
:101400006968C1F38101022944D00228C6F86080CE
:1014100004D0FEF7E3FF044638E034E0FEF7DEFFD9
:10142000074604E0FEF7DAFFC01B02282BD8286825
:101430008001F7D4206AB0F5803F05D16868A168C3
:1014400020F4003008436860D4E908010843696863
:1014500021F4741108436860C6F86090FEF7BEFF7F
:10146000044606E025E000BFFEF7B8FF001B022897
:1014700009D828688001F7D51BE000BFFEF7AEFF52
:10148000001B022802D90320BDE8F88F28688001DC
:10149000F4D40EE00128F7D06868226A00F48031A5
:1014A000914204D1616A00F47010884201D0012099
:1014B000EAE70020E8E70000001002400000424296
:1014C000800442428C0000200070004070B504008F
:1014D00009D0606A002540B125616561A56294F874
:1014E000510040B10CE0012070BD6068B0F5827F12
:1014F000F4D0E561F2E784F85050204600F040F85F
:10150000022084F851002068016821F04001016048
:10151000A088218900F4827001F404410843A18964
:1015200001F400610843217C01F002010843217DA0
:1015300001F001010843218B01F400710843217F70
:1015400001F03801084394F8201001F080010843AD
:10155000218D01F40051084321680860A06904212D
:1015600001EA1040216848602068C16921F40061E7
:10157000C1616565012084F85100002070BD000044
:1015800030B585B00024009401940294039400685F
:101590001449884223D11448816941F48051816102
:1015A000816901F480510491816941F004018161F4
:1015B00080690E4D00F004000490A02000900220ED
:1015C00001900320039069462846FEF711FE402053
:1015D000CDE90004694628460294FEF709FE05B0ED
:1015E00030BD000000300140001002400008014002
:1015F0002DE9F84F044690F8500000270A9E1D463A
:1016000092468B464FF0010901280ED0012084F844
:101610005000FEF7E3FE804694F85100616801280F
:101620000CD0B1F5827F07D102E00220BDE8F88F2F
:10163000A16809B9042801D00227C2E0BBF1000F5C
:1016400027D0BAF1000F24D01DB394F8510004281C
:1016500002D0052084F8510000206065C4F838A04D
:10166000E587A587C4F830B0E586A5862064606468
:1016700020680168490603D4016841F04001016017
:10168000E068B0F5006F606805D0E8B3012D46D082
:101690007FE0012795E008B1012D39D1206B216849
:1016A0000088C860206B801C2063E08E401EE086AE
:1016B0002EE02068816889070FD5E18E69B1B9F104
:1016C000010F0AD1216B0988C160206B801C206347
:1016D000E08E401EE0864FF0000920688168C9074F
:1016E0000CD0E18F51B1C068A16B0880A06B801C49
:1016F000A063E08F401EE0874FF00109FEF76EFE09
:10170000A0EB0800B04200E009E001D3701C50D10A
:10171000E08E0028CDD1E08F0028CAD13FE0206BB9
:10172000216800780873206B401C2063E08E401E07
:10173000E0862EE02068816889070FD5E18E69B1C7
:10174000B9F1010F0AD1216B09780173206B401C9C
:101750002063E08E401EE0864FF00009206881681B
:10176000C9070CD0E18F51B1C068A16B0870A06BA4
:10177000401CA063E08F401EE0874FF00109FEF798
:101780002DFEA0EB0800B04202D3701C01D010E087
:101790007EB1E08E0028CDD1E08F0028CAD142462C
:1017A0003146204600F0C3FE28B1012720206065A5
:1017B00007E0032705E0A06818B92068C1688068C1
:1017C0000090012084F85100002084F85000384631
:1017D0002CE710B5401EB0F1807F01D3012010BD71
:1017E0004FF0E02460610F21601702F0E3FC00205D
:1017F000A06107202061002010BD70B5040004D056
:1018000094F83D00002510B106E0012070BD84F879
:101810003C50204600F022F8242084F83D00206847
:10182000C16821F40051C160204600F077FF2068B4
:10183000016921F4904101612068416921F02A0188
:1018400041612068C16841F40051C16025642020D5
:1018500084F83D0084F83E00002070BD30B585B0AE
:10186000002400940194029403940068144988426F
:1018700024D11448C16941F48021C161C16901F4D6
:1018800080210491816941F00801816180690E4DD8
:1018900000F0080004904FF4806000900220019056
:1018A0000320039069462846FEF7A2FCE814CDE920
:1018B0000004694628460294FEF79AFC05B030BD44
:1018C0000048004000100240000C0140FEE700000C
:1018D000F0B500230A24302537261F4611E000BF4B
:1018E000B4EB107F02D905EB107C01E006EB107C15
:1018F00001F813C001EB430C00015B1C8CF8017074
:10190000DBB29342ECD3F0BD70B5D0F8B8420546D7
:1019100004F58051087E38B9486928B1607A18B951
:101920000121284601F05EFA8121284601F05AFA89
:10193000607A022809D141F20C0022182846BDE83D
:1019400070401F23012101F0CDB970BD70B5D0F8F2
:10195000B842064604F58055012128692863686964
:101960006863304601F066F91F280AD12649E86805
:10197000884206D1697E012903D8A87E08B11028C3
:1019800008D9697E20230522304600F055FD02204B
:1019900060720AE041F21B002218304600F020FB82
:1019A0000028207A08DA052804D03046BDE87040C7
:1019B000FFF7AABF012121E0022824D0012822D06C
:1019C000032820D06589C5B104F10C02D6F8B842CD
:1019D000304604F580514B69AB4200D32B464E6B29
:1019E0009BB2751B4D63002581F83850042121728C
:1019F000BDE87040812101F010BA00213046BDE8F9
:101A0000704000F08BB870BD5553424310B5D0F80C
:101A1000B842627A022A08D009060BD5012A09D0F9
:101A2000BDE81040012100F079B8812101F0DAF918
:101A30000020607210BD10B5D0F8B8220446107AAC
:101A4000022805D0032801D0042811D100210AE082
:101A500041F21900815C801C0244204600F0C0FA6B
:101A6000002805DA01212046BDE8104000F056B8F4
:101A700010BD10B5D0F8B8220446107A88B10128FC
:101A800014D141F21900815C801C0244204600F010
:101A9000A7FA00280ADA2046BDE81040012100F02C
:101AA0003DB82046BDE81040FFF750BF10BDD0F84C
:101AB000B80200210172704770B5D0F8B8420546EF
:101AC0000021217204F58050617280F85D1080F869
:101AD0005C10D5F8BC020168002088470121284627
:101AE00001F09FF88121284601F09BF841F20C009B
:101AF00022182846BDE870401F23012101F0F2B8EA
:101B0000D0F8B81200221F230A7201224A7241F251
:101B10000C020A44012101F0E5B8000070B5D0F8CC
:101B2000B842054604F580520B48D06282F838105E
:101B30000020207241F22C0022180D23812128461A
:101B400001F06BF941F20C0022182846BDE8704004
:101B50001F23012101F0C6B85553425330B585B05B
:101B6000002418480094019402940394816941F080
:101B700020018161816901F020010491816941F0B6
:101B800004018161816901F004010491816941F0DE
:101B90000801816180690C4D00F008000490012269
:101BA00010212846FEF714FC102000900120CDE9FA
:101BB00001040320039069462846FEF719FB05B08F
:101BC00030BD00000010024000080140104810B570
:101BD0000E4901604FF48271416000218160C16053
:101BE0004FF400720161C0E905120822C0E9072123
:101BF000416281620A21C162FFF768FC002803D0BC
:101C0000BDE81040FEF7F1BA10BD00000030014001
:101C1000380100200C4810B50A4901604FF4E13149
:101C20004160002181600C22C160C0E90412816121
:101C3000C161FFF7E2FD002803D0BDE81040FEF7C8
:101C4000D4BA10BD004800409001002010B5002219
:101C50000F49104800F01AFF08B1FEF7C6FA0E4906
:101C60000C4801F0F1F908B1FEF7BFFA0B49094839
:101C700001F046F908B1FEF7B8FA064801F03AFA61
:101C8000002803D0BDE81040FEF7AFBA10BD000039
:101C900010000020D40100209400002060000020EB
:101CA000FEE7FEE72DE9F84F044640F68F7B48F645
:101CB0000F7A4FF002094FF4806874E1B0F84410D5
:101CC00011F00F063AD030F8267039047DD530F87F
:101CD000261001EA0B0141F0800120F8261006EBE6
:101CE000860004EBC00595F8740105F5B47500286D
:101CF0006CD0E87802286AD02878226832F8201060
:101D000048F68F73194048F2C003194322F8201097
:101D10002878D4F800C03CF82010BCF850204904C2
:101D20007ED509EBC000111808EB41003CF800001B
:101D30008005800D009074D02A89D8E0C9062DD482
:101D4000018801EA0A0141F400410180216804F19F
:101D50002805B1F850202B7809EBC300024408EBAA
:101D60004200085AC0F309006064E16B0844E06374
:101D700000212046FEF7EFFB94F8240000289CD0B9
:101D8000A869002899D194F82400216840F08000C7
:101D9000A1F84C00002084F8240004E1018804F537
:101DA000B4750A0521D5B0F850202B78062101EB37
:101DB000C3010A4408EB4201405A04F52C71C0F3F8
:101DC0000903EB61EA88206802E0ACE068E07AE0B1
:101DD00002F030F82168088800EA0B0040F080002B
:101DE00008802046FFF74DF8DDE00904D5D50188CD
:101DF00001EA0B0141F0800101802068B0F8502019
:101E00002B78062101EBC3010A4408EB4201405A3A
:101E100083059B0DEB6110D0696971B1EA8801E01F
:101E200058E056E0206802F005F8E969686908445E
:101E3000686100212046FEF797FB206801880905AC
:101E40002DD4B0F850100844296900F20C4051B16B
:101E50003E2910D84A08C90700D0521C4FF6FF711E
:101E600001EA82210FE0018821F4F8410180018814
:101E700041F4004107E04A09C90600D1521E4FF45F
:101E8000004141EA82210180206801884BF68F726F
:101E9000114081F4405148F280021143018082E0F8
:101EA000D4F800C0BCF850102A78062000EBC2001D
:101EB000014408EB41003CF800008005800D0090D3
:101EC0001AD0EA8813E03A4629462046FEF7AAFBD4
:101ED000009011E0062101EBC000111808EB410051
:101EE0003CF800008005800D009005D06A8903460B
:101EF0006046696901F09EFFE96900980844E8615D
:101F00006969009808446861A86918B1296900984E
:101F1000814204D929782046FEF726FB03E02946B2
:101F2000206801F069FC38063DD506EB860004EB1D
:101F3000C001206830F8262002EA0A0242F400427A
:101F400020F8262091F82B002831032804D018B15E
:101F5000022824D1F80522D42368B3F850200D7844
:101F600009EBC500024408EB4200185A8A69C0F325
:101F7000090082420CD9121A8A610BD04A690244C4
:101F80004A61CA691044C861206801F035FC0AE062
:101F900000208861E9B22046FEF7DDFA03E03A4608
:101FA0002046FEF7B2FB2068B0F8441009043FF564
:101FB00085AE0020BDE8F88F704710B5D0F8B84264
:101FC0001A4404F58054236E9A4206D9212305222F
:101FD00000F032FA4FF0FF3010BD002010BD0000BD
:101FE0002DE9F04113780024232B70D00DDC1A2B3F
:101FF0006ED005DCEBB1032B39D0122B11D168E088
:102000001B2B01D01E2B0CD18FE02A2B72D004DCAD
:10201000252B70D0282B04D1ADE02F2B6CD05A2B60
:102020006BD02023052200F007FA4FF0FF30BDE807
:10203000F081D0F8B872054607F580500E46416928
:1020400021B1417E202305222846A1E0D5F8BC021B
:1020500081683046884740B13A23022231462846FB
:1020600000F0EAF9052038729FE07C819DE0D0F80D
:10207000B80200214318491CC9B21C731229F9D3B4
:10208000702101730C21C17400F5805191F85C50EE
:1020900091F85D309D4213D000EBC503A3F6C473E5
:1020A00003F500536D1C1E7886735E7906761B79E6
:1020B0004376EBB281F85C30042B01D181F85C40AF
:1020C00012214181117912296FD841816DE04CE0D4
:1020D0002FE05478D0F8B832E4070FD00720344905
:1020E0005881401E0004000C03EB00040A5C2273BC
:1020F000F7D15AE042E03BE043E028E0D0F8BC02F0
:1021000001EBC1011279C06900EB81010879401D22
:10211000824200D81046588104E0401E80B21C184C
:102120000A5C22730028F8D13FE0D0F8B80244815D
:102130003BE0D0F8B81208201E4A4881401E000437
:10214000000C01EB0004135C2373F7D12DE0D0F8F1
:10215000B8020821184A4181491E0904090C00EB04
:102160000104535C2373F7D11FE000F02EF91CE04B
:1021700000F0FDF819E000F0B1F816E000F07CF98D
:1021800013E05278D0F8B852920704D524230522E0
:1021900000F052F909E0A5F69C7202F500520CCA53
:1021A000FFF70BFF002800DB6C8100203FE70000F9
:1021B000484200084F420008574200082DE9F04706
:1021C000D0F8B862074606F580548846B4F85E0039
:1021D000A56E4FF4805145438D4200D30D46B5FBAB
:1021E000F0F083B2D7F8BC0206F10C01626ED0F8B1
:1021F00010C089464046E047002809DA112304222E
:102200004146384600F018F94FF0FF30BDE8F0873E
:10221000ABB24A468121384600F0FFFDB4F85E00BB
:10222000626EB5FBF0F1B5FBF0F011446166A16E92
:10223000081AA066616BA1EB0501616301D103205F
:1022400030720020E2E72DE9F0478846D0F8B81256
:10225000074601F580544FF48055B4F85E00A66E31
:102260004643AE4200D32E46B6FBF0F083B2D7F819
:10227000BC020C31626ED0F814C089464046E0477B
:10228000002809DA032304224146384600F0D4F836
:102290004FF0FF30BDE8F087B4F85E10626EB6FB19
:1022A000F1F010446066B6FBF1F0A26E101AA06661
:1022B000626BA2EB060262630BD04843A84200D2D5
:1022C0000546ABB24A460121384600F00BFD00201E
:1022D000E0E700213846FFF721FCF8E72DE9F04759
:1022E000D0F8B85207461646287A8946A8BB05F5A5
:1022F00080544FF0FF38207E00062AD5D7F8BC0264
:1023000081684846884730B13A2302224946384618
:1023100000F092F811E0D6F80200494600BA20F029
:10232000FF02707902436266B6F8070043BA384686
:10233000A366FFF742FE002802DA4046BDE8F087B8
:1023400002202872B4F85E10A06E4843616988428A
:1023500004D02023617E0522D9E7FFE74FF48050A7
:10236000688149463846BDE8F047FFF727BF70B59A
:1023700005460E46D5E9AE4004F58351436841F267
:102380005E0022183046984740B13A230222314677
:10239000284600F051F84FF0FF3070BD04F5805131
:1023A000086E401E020E2273020C6273020AA273B0
:1023B000E073002020746074B1F85E00010AA1741B
:1023C000E07408206081002070BD2DE9FC410546C5
:1023D000D0F8B84200200F4606462118401C80B2B3
:1023E0000E730C28F9D3D5F8BC026A4601A94368DC
:1023F0003846984748B13A2302223946284600F029
:102400001BF84FF0FF30BDE8FC810820E073019815
:10241000401E010E2174010C6174010AA174E07464
:10242000022020756675BDF80000010AA175E075EF
:102430000C2060810020E6E7D0F8B81201F580504A
:1024400090F85D3001EBC30303F5805383F83C2023
:1024500090F85D30002201EBC30101F5805181F855
:10246000402090F85D10491CC9B280F85D10042925
:1024700001D180F85D2070472DE9F047D0F8B852BF
:1024800006461746287A894620B13046BDE8F0470F
:10249000FFF7D9BE05F580544FF0FF38207E0006C7
:1024A00031D4D6F8BC0281684846884728B13A231F
:1024B0000AE03046FFF7C0FF1BE0D6F8BC02C16857
:1024C0004846884718B1272302224946F1E7D7F842
:1024D0000200494600BA20F0FF02787902436266A2
:1024E000B7F8070043BA3046A366FFF766FD002839
:1024F00002DA4046BDE8F087B4F85E00A16E4143C1
:102500006069884203D02023617E0522D1E74FF421
:102510008050814200D3014601208BB228720146CF
:1025200005F10C02304600F0DDFB0020E2E738B593
:102530000B46009204460022802100F009F8002892
:1025400004D0606D40F020006065032038BD0000BD
:102550002DE9F8431E46914688460446089DFDF73E
:102560003DFF401B351AFDF739FF07462548006837
:10257000C0F3CB30684338E0701C37D0FDF72EFF36
:10258000C01BA84203D215B1009860B32CE02068AC
:10259000416821F0E00141606068B0F5827F0BD1B5
:1025A000A068B0F5004F02D0B0F5806F04D120686C
:1025B000016821F040010160A06AB0F5005F09D117
:1025C0002068016821F4005101602068016841F42D
:1025D00000510160012084F85100002084F850006F
:1025E0000320BDE8F8830025401E00902068816824
:1025F00038EA010004D000214945BDD10020F0E7B0
:102600000121F9E78C0000204FF48050108003482E
:102610000068000B086000207047000004000020E4
:102620000020704710B501F05DFC002800D00220AA
:1026300010BD00207047002070472DE9F0411F4673
:1026400015460E4600244FF4805808E02903424600
:10265000304601F06FFC641C6D1C06F58056BC42D0
:10266000F4DB0020BDE8F0812DE9F0411F4614465F
:102670000E4600254FF480580BE0204601F00CFC7C
:1026800021034246304601F045FD641C6D1C06F5F1
:102690008056BD42F1DB0020BDE8F0817047FDF7B8
:1026A000A3BE30B593B028216846FDF754FD142130
:1026B0000AA8FDF750FD002401200F9410941194F6
:1026C000010412948DE8130004904FF4E010CDE95A
:1026D0000810022507956846FEF768FD08B172B636
:1026E000FEE70F20CDE90A054FF48060CDE90C40EC
:1026F00002210AA80E94FEF76DFC08B172B6FEE73F
:1027000010200F9012940FA8FEF7EEFB002801D0C6
:1027100072B6FEE713B030BD7047000070B50446D6
:1027200000680169E26821F44051114301612169A7
:10273000A0680843616908432168CA6841F20C63D4
:102740009A430243CA6020684169A26921F440713A
:10275000114341611E492068884202D1FEF7E0FC26
:1027600001E0FEF7CDFC00EBC00101EB0012606858
:1027700064218000B2FBF0F3B3FBF1F36FF01806B5
:102780007343B2FBF0F5B2FBF0F605EB83053223A1
:1027900003EB0515B5FBF1F5B6FBF1F605F0F00519
:1027A00005EB0615B2FBF0F6B2FBF0F0B0FBF1F072
:1027B0006FF01802504306EB800003EB0010B0FBF3
:1027C000F1F0216800F00F002844886070BD00001F
:1027D0000038014010B5D0F8B4225268904700206C
:1027E00010BD134610B50A46002100F07BFA002008
:1027F00010BD134610B50A46002100F00EFB002064
:1028000010BD10B50446802100F0ECFA2046BDE86A
:102810001040002100F0E6BA10B505210023C0F8F1
:1028200094121A46194600F05DFA002010BD10B54A
:102830000223C261C0F89432026213460A460021A4
:1028400000F0EBFA002010BD10B504210023C0F801
:1028500094121A46194600F0E0FA002010BD00005C
:1028600010B50A46024903A000F0E0F8004810BD88
:10287000980400204D534320436F6E666967000043
:1028800012200880004870473000002010B50A462A
:10289000024903A000F0CAF8004810BD98040020C7
:1028A0004D534320496E7465726661636500000094
:1028B00004200880004870472C00002010B50A460C
:1028C000024903A000F0B2F8004810BD98040020AF
:1028D00053544D6963726F656C656374726F6E6992
:1028E0006373000010B50A46024903A000F09EF889
:1028F000004810BD9804002053544D3332204D61E0
:1029000073732053746F72616765000010B51A20ED
:1029100008800A480168001D0468001D0068081846
:1029200009D008220649FEF7D3FF054904221031D9
:102930002046FEF7CDFF0248801E10BDE8F7FF1FBE
:1029400046000020F8B504460020ADF80000488895
:102950000D46010A082948D2DFE801F047040917AB
:1029600047473C45D4F8B012207C0A6819E0207C27
:1029700002260028D4F8B40205D0C16A6846884708
:10298000014646703EE0816AF8E7C0B206282CD2C4
:10299000DFE800F0030A1014181CD4F8B0024268F3
:1029A00005E0694690471CE0D4F8B0028268E2B1C5
:1029B000207CF6E7D4F8B002C268F8E7D4F8B00299
:1029C0000269F4E7D4F8B0024269F0E7D4F8B00243
:1029D0008269ECE7207C40B9D4F8B402416B6846C8
:1029E000884701460EE0207C20B129462046FFF7AB
:1029F00008FFF8BDD4F8B402016B68468847014669
:102A000007204870BDF8000048B1EA8852B1824200
:102A100000D90246ADF800202046FFF708FFE888FD
:102A20000028E6D12046FFF70FFFF8BD70B5002360
:102A300000281ED00446002502E06D1CEDB2641C87
:102A40002678002EF9D1022404EB45041480127874
:102A5000CA545B1C0322CA5400245B1C06E0CA54FF
:102A60005B1CDAB28C54521CD3B2401C0278002A90
:102A7000F5D170BD01004FF0000004D0012901D054
:102A8000022901D0022070470120704710B580B1A3
:102A9000D0F8B43213B10023C0F8B43209B1C0F891
:102AA000B012012180F89C12027000F0C7F80020DB
:102AB00010BD022010BD10B5D0F8C002FDF784FD96
:102AC000BDE81040FFF7D6BF10B5D0F8C002FDF743
:102AD00055FDBDE81040FFF7CDBF2DE9F041174689
:102AE000044651B1D4F8B40242691AB194F89C0278
:102AF000032851D00220BDE8F081D4F8943200259B
:102B000004F11400022B03D0042B3AD0C3B33CE0F1
:102B1000D0E903639E4207D9F11AC1608AB23946EF
:102B20002046FFF766FE12E08068B0FBF3F103FB7E
:102B3000110199B9984211D3D4F8981288420DD254
:102B4000002211462046FFF754FEC4F89852002395
:102B50001A461946204600F0C5F816E0D4F8B4022B
:102B6000C16829B194F89C02032801D12046884706
:102B70008021204600F036F92046FFF74DFE04E0A4
:102B8000FFE78021204600F02DF994F8A0020128EB
:102B900004D184F8A05201E0204690470020AAE723
:102BA00070B51546044649B1D4F8B40282691AB129
:102BB00094F89C02032830D0022070BDD4F89412FF
:102BC00004F5AA70032902D005291ED027E0D0E918
:102BD00003218A420BD9531AC3600846834200D3AB
:102BE00003469AB229462046FFF7FBFD17E0D4F8CA
:102BF000B402016929B194F89C02032801D120464E
:102C000088472046FFF720FE09E000200146C4F86F
:102C10009402204600F0E6F801E0204690470020AC
:102C200070BD10B5D0F8C002FDF707FFBDE8104039
:102C3000FFF720BFD0F8C002FDF719BF10B5194942
:102C40000446C1F8E802C0F8C0121748086008201E
:102C500048600220886000208861C86108620846D8
:102C6000FEF754F808B1FDF7C0FA0022D4F8C0020C
:102C70001823114604F53074FDF74EFC582300224A
:102C800080212068FDF748FC9823002281212068DC
:102C9000FDF742FCD823002201212068FDF73CFC0F
:102CA000002010BD08170020005C00400A0601F05B
:102CB0007F01D0F8C00201EB810100EBC10002D519
:102CC00090F82A00704790F86A01704710B51C46CA
:102CD0001346D0F8C0022246FDF7D2FEBDE81040F0
:102CE000FFF7C8BE10B5D0F8C002FDF7F9FEBDE889
:102CF0001040FFF7BFBE70B50022044640231146C6
:102D0000FFF7E4FF40260125C4F864613346002242
:102D100080212046C4F85851FFF7D8FF6662A561AC
:102D200084F89C520020C4F894026060C4F8A402A5
:102D3000D4F8B80228B1D4F8B40200214268204681
:102D40009047002070BD90F89C12042903D190F8A0
:102D50009D1280F89C120020704710B590F89C12CC
:102D6000032904D1D0F8B412C96901B18847002001
:102D700010BD01740020704710B5D0F8C002FEF7F6
:102D80006CF8BDE81040FFF775BE70B5044600F55D
:102D90002A70054600F044F90120C4F89402B4F802
:102DA000AE02C4F8980294F8A80210F01F010AD0ED
:102DB00001290DD0022910D000F08001204600F03A
:102DC00011F8002070BD2946204600F098F9F8E778
:102DD0002946204600F0C4FAF3E72946204600F0D1
:102DE00017FAEEE710B5D0F8C002FDF792FEBDE885
:102DF0001040FFF73FBE10B5D0F8C002FEF748F80C
:102E0000BDE81040FFF736BE90F89C1280F89D1286
:102E1000042180F89C120020704710B5D0F8C00241
:102E2000FDF7B0FEBDE81040FFF724BE10B5FEF779
:102E300002FE002010BD10B5FEF71BFE002010BDE5
:102E400070B504460121FFF73FFE00258121204691
:102E5000C4F86C51FFF738FE2046E562FEF727FE06
:102E6000D4F8B80218B100F0A2FAC4F8B8520020A1
:102E700070BD00000A210180004870472C0100202D
:102E80002021018000487047EC00002020210180B3
:102E900000487047CC000020202101800048704786
:102EA0000C01002070B50446007C0125D0B1402300
:102EB000022201212046FFF709FF4023C4F86C518C
:102EC000022281212046FFF701FF41F26C00E562FA
:102ED00000F06EFAC4F8B80280B12046FEF7ECFDAF
:102EE000002070BD4FF400763346022201212046B7
:102EF000FFF7ECFE3346C4F86C51E1E7022070BDE9
:102F000009B1C0F8BC12002070472DE9F843002633
:102F1000D0F8B8720546ADF8006008780C46B046A7
:102F200010F0600120D020293DD16178FE2902D027
:102F3000FF2938D10EE0618881BBE188012932D1B7
:102F4000000630D5D5F8BC02806980470122394699
:102F500038601FE0618809BBE188F9B9000622D416
:102F60002846FEF7CDFD23E0607830B1012825D05A
:102F70000A2809D00B2816D111E095F89C020328E5
:102F800011D10222694605E095F89C0203280AD176
:102F90000122391D2846FFF74AFC09E003E095F8B5
:102FA0009C02032807D021462846FFF72AFC022668
:102FB0003046BDE8F883A0787860F9E721792846A3
:102FC000FFF72FFE21792846FFF77EFDA0884FF0FE
:102FD0000107010600F00F0000EB80004FF40073C2
:102FE00005EB80000BD5C0F81880287C00B1402389
:102FF000022281212846FFF769FEEF620BE0C0F84C
:103000005881287C00B14023022201212846FFF785
:103010005DFEC5F86C7121792846FEF7F7FCC7E71D
:103020000A7802704A7842708A78CB7802EB0322E1
:1030300042800A794B7902EB032282808A79C9792E
:1030400002EB0121C18070470246002011B1C2F895
:10305000B41270470220704710B5D0F8B422022491
:103060001AB11268904700B90024204610BD000034
:1030700070B50E461E4D897804462970012931D855
:1030800094F89C0202280BD003280FD0314620462A
:10309000FFF7B7FB29782046BDE87040FFF79ABBE1
:1030A000D9B10320616084F89C0209E071B16068C5
:1030B000884212D0C1B22046FFF78CFB29786160AC
:1030C0002046FFF7C9FF02280CD006E0022084F852
:1030D0009C0220466160FFF77DFB2046BDE8704002
:1030E000FFF7B2BB31462046BDE87040FFF789BB11
:1030F0009000002010B5FFF77EFE002010BD2DE9E6
:10310000F0410A78002612F0600208D0202A01D08F
:10311000402A70D1D0F8B422926890476DE04B7885
:10312000002201250A2B66D2DFE803F0405D6557D7
:10313000650805652C29FFF705FC5EE004468888D4
:10314000D8B9C888C8B94888802816D200F07F0747
:1031500094F89C02032810D084F89E7239462046C9
:10316000FFF70AFE2046FFF76FFB1FB1022084F82D
:103170009C0242E084F89C523FE020463BE0FFF78F
:1031800077FF3AE0CB88012B35D190F89C32012BA8
:1031900004D0022B02D0032B2DD104E08260012247
:1031A00000F1080116E00122011D13E090F89C22B5
:1031B000012A03D0022A01D0032A1CD1CA88022A7C
:1031C00019D1C560D0F8A41209B10321C16002224F
:1031D00000F10C01FFF72BFB0FE0498801290CD10E
:1031E000C0F8A45211E090F89C32012B08D0022BB9
:1031F00006D0032B04D0FFF704FB3046BDE8F08176
:1032000049880129F9D1C0F8A422FFF71DFBF4E792
:103210002DE9F0410A46044610780027097910F09C
:1032200060030AD0202B01D0402B50D1D4F8B40237
:1032300011468368204698478FE0C0F3411001286B
:1032400006D05078D0B301282AD003283FD107E018
:10325000D4F8B402114683682046BDE8F04118470F
:1032600094F89C02022802D0032872D10AE071B3BC
:1032700080296ED02046FFF7B5FD80212046FFF75C
:10328000B1FD6AE0508838B931B1802904D0D088C6
:1032900010B92046FFF7A6FD2046FFF7D5FA5CE0FF
:1032A00094F89C020228E2D0032852D1508898BB9F
:1032B0004806F1D02046FFF7FEFBEDE7FFE794F864
:1032C0009C020026022803D0032842D112E040E0ED
:1032D00009B180293DD1080601F07F0000EB800094
:1032E00004EB800101D5143101E001F5AA7102223D
:1032F0000E602AE0080601F00F0000EB800004EBEE
:1033000080000AD5806920B301F07F0000EB8000C7
:1033100004EB800514350BE01FE0D0F85801C0B174
:1033200001F07F0000EB800004EB800505F5AA7535
:1033300041B1802906D02046FFF7B8FC10B101202A
:10334000286000E02E60022229462046FFF76FFA2F
:1033500003E011462046FFF754FA3846BDE8F081F5
:1033600070B5054608780C4610F0600003D02028A0
:1033700001D0402816D195F89C02012803D00228DC
:1033800001D003280ED1207901280BD8D5F8B4023A
:10339000826828469047E188014306D12846FFF716
:1033A00053FA02E02846FFF72CFA002070BD704760
:1033B00000487047980600202DE9F0470C78002659
:1033C00030F8243048F68F121340CA78002A7DD096
:1033D000012A7CD0022A02D0032A7FD0012648F29B
:1033E0008002134320F824300D7830F8254048F649
:1033F0008F731C402C43144320F825400D7B48F26A
:10340000C00C48F6BF744CF280074BF68F79EDB3D1
:1034100091F80080C24630F8285048F280181D40CC
:1034200045EA080520F82A50B0F8505091F800807D
:10343000054405EB0815B1F8088028F00108A5F847
:103440000084B0F8505091F80080054405EB081551
:10345000B1F80A8028F00108A5F808844D78002DFD
:103460000D7830F825804FEA48487DD0B8F1000F3C
:1034700007DA30F8258008EA030848EA070820F848
:1034800025800F7830F827506D0600E02CE006D537
:1034900030F827501D4045EA0C0520F82750CB781E
:1034A0000D78012B30F8253003EA040301D083F0B6
:1034B0002003134320F825300B7830F8231001EA5D
:1034C0000901114320F82310304602E003E008E030
:1034D00004E0BDE8F08743F4007380E743F4C06381
:1034E0007DE743F480637AE74D782DB3B0F8505010
:1034F0000F78054405EB0715CF8827F00107A5F8DD
:1035000000740F7830F827506D0606D530F8275034
:103510001D4045EA0C0520F82750CB78012B06D03A
:103520000B7830F82310214081F02001C9E70B7897
:1035300030F823102140C4E7B0F850400D7804441F
:1035400004EB0514CD8825F00105A4F80854B0F863
:1035500050400D78044404EB05140D6904F20C444A
:1035600075B13E2D14D800E030E04FEA550CED0760
:1035700001D00CF1010C4FF6FF7505EA8C2511E026
:10358000258825F4F8452580258845F4004509E07F
:103590004FEA551CED0601D1ACF1010C4FF400458A
:1035A00045EA8C2525800D7830F82540640405D542
:1035B00030F825401C403C4320F825400B7830F87B
:1035C000231001EA090181F440517AE7B8F1000FB4
:1035D00007DA30F8258008EA030848EA070820F8E7
:1035E00025800F7830F827506D0606D530F8275023
:1035F0001D4045EA0C0520F827500D7830F825309D
:1036000003EA090383F44053134320F825308EE77F
:10361000002070472DE9F04391F80C804F780A782C
:1036200048F6BF7C4BF68F7948F2800348F2C0051C
:103630004CF2800648F68F74B8F1000F28D0002FA6
:1036400030F822704FEA474748D0002F05DA30F8AB
:1036500022702740374320F822700A7830F8227011
:103660007F0605D530F8227027402F4320F82270BE
:103670000D7830F825202240324320F825200C78A0
:1036800030F8242002EA0C021A4320F824201AE021
:103690007FB130F82260760605D530F822602640EA
:1036A0002E4320F822600A7830F8221001EA0C013B
:1036B0000EE030F822506D0405D530F82250254038
:1036C000354320F822500A7830F8221001EA090127
:1036D000194320F822100020BDE8F083002F05DAFE
:1036E00030F822702740374320F822700A7830F8EB
:1036F0002260760605D530F8226026402E4320F859
:1037000022600E7830F8262022402A4320F8262016
:103710000C7830F8242002EA09021A4320F8242009
:10372000C1E70020704700207047012120F8401FAA
:1037300000210180818001820846704730F8401FD7
:1037400021F43F410180002070470020704730B5D0
:103750000A7BB2BB4A7848F68F7548F28004C2B142
:103760000B7830F82320520607D530F823202A4062
:1037700048F2C0052A4320F82320CA78012A20D025
:103780000A7830F8221048F6BF73194081F0200102
:1037900014E00A7830F822305B0407D530F8223084
:1037A0002B404CF280052B4320F822300A7830F869
:1037B00022104BF68F73194081F44051214320F8B9
:1037C0002210002030BD10B54A780978002A48F24E
:1037D000800330F8212005D048F6BF74224082F0E3
:1037E000100204E04BF68F74224082F480521A4398
:1037F00020F82120002010BD2DE9F0470E464B781F
:10380000097B04464FF0000948F68F7248F2800A9F
:103810004FF6FF774FF40048012B09D000296ED0F6
:10382000F07802286CD001286BD00120BDE8F08729
:10383000B5693069854200D90546C9B1F17848F2C9
:103840008013022923D0317834F821001040184326
:1038500024F82100306A401B3062307834F82010A0
:10386000490671787ED500297DD001297CD03FE1C1
:10387000ABB2F2882046716900F0FAFAB4F8500051
:103880003178204400EB0110A0F80454EAE0316ADA
:1038900081426AD9317834F821001040184324F865
:1038A0002100306A401B3062307834F8201049061D
:1038B00071786CD511B1012924D02AE0B4F85010E8
:1038C000214401EB001000F20C404DB13E2D0FD809
:1038D0006908EA0700D0491C07EA8121018018E045
:1038E000018821F4F8410180018841F40041F5E7A5
:1038F0006909EA0600D1491E48EA8121EEE79CE108
:10390000BCE126E2B4F85020111901EB0010A0F838
:103910000C547289ABB22046716900F0A9FA706943
:10392000284470613169306A884202D9401B306294
:1039300002E00546C6F82090707800287CD1B4F8E3
:1039400050003178204400EB011000F204406DB1CA
:103950003E2D13D86908EA0700D0491C07EA8121E7
:10396000018012E001E19BE0BBE084E0018821F4EA
:10397000F8410180018841F40041F1E76909EA0654
:1039800000D1491E48EA8121EAE7328965E011B198
:10399000012921D027E0B4F85010214401EB001098
:1039A00000F204404DB13E2D0FD86908EA0700D05F
:1039B000491C07EA8121018015E0018821F4F841C2
:1039C0000180018841F40041F5E76909EA0600D168
:1039D000491E48EA8121EEE7B4F85010214401EB7A
:1039E0000010A0F804543289ABB22046716900F08F
:1039F0003FFA7069284470613169306A884202D99F
:103A0000401B306202E00546C6F82090707800281E
:103A10007ED1B4F850003178204400EB011000F260
:103A20000C4055B13E2D10D86908EA0700D0491C5A
:103A300007EA812101800FE072E0018821F4F8415A
:103A40000180018841F40041F4E76909EA0600D1E8
:103A5000491E48EA8121EDE77289ABB220467169BF
:103A600000F006FA317834F8210048F6BF721040B1
:103A700080F03000C0E1327834F8220048F68F63DD
:103A8000184040EA0A0024F82200B4F850003278C6
:103A9000204400EB02108BB2A0F804343289DDE739
:103AA000B4F85010214401EB001000F20C404DB16D
:103AB0003E2D0FD86908EA0700D0491C07EA81218A
:103AC000018015E0018821F4F8410180018841F46A
:103AD0000041F5E76909EA0600D1491E48EA81215B
:103AE000EEE7B4F85020111901EB0010A0F80C54C7
:103AF0007289ABB22046716900F0BAF97069284446
:103B000070613169306A884203D9401B306203E03A
:103B10006EE00546C6F82090002DA3D0707858B10D
:103B200001287FF41EAFB4F850003178204400EB38
:103B30000110A0F8045428E7B4F85000317820446C
:103B400000EB011101F204413E2D06D86808EA0796
:103B500000D0401C07EA802005E06809EA0600D191
:103B6000401E48EA802008800FE711B1012921D0CA
:103B700027E0B4F85010214401EB001000F204409B
:103B80004DB13E2D0FD86908EA0700D0491C07EA5D
:103B90008121018015E0018821F4F841018001882C
:103BA00041F40041F5E76909EA0600D1491E48EAF7
:103BB0008121EEE7B4F85010214401EB0010A0F889
:103BC00004543289ABB22046716900F051F9706932
:103BD000284470613169306A884202D9401B3062E2
:103BE00002E00546C6F82090002D96D0707858B1B6
:103BF00001287FF420AFB4F850100819317800EB99
:103C00000110A0F80C5427E7B4F850003178204494
:103C100000EB011101F20C413E2D06D86808EA07BD
:103C200000D0401C07EA802005E06809EA0600D1C0
:103C3000401E48EA802008800EE7B1693069814261
:103C400002D9091AB161B5E00846C6F81890B1E08A
:103C5000088820F4F8400880088840F400400BE011
:103C60003E2875D84208C00700D0521C07EA8220BF
:103C700002E000BF48EA82200880B5E093B9B4F8BA
:103C800050003178204400EB0110316900F204400B
:103C900069B13E2913D84B08C90700D05B1C07EA5D
:103CA00083210180707888B1012832D03AE0018800
:103CB00021F4F8410180018841F40041F1E74B090A
:103CC000C90600D15B1E48EA8321EAE7B4F8500038
:103CD0003178204400EB0110316900F20C4049B109
:103CE0003E290FD84B08C90700D05B1C07EA832187
:103CF000018017E0018821F4F8410180018841F436
:103D00000041F5E74B09C90600D15B1E48EA832153
:103D1000EEE7B4F850100819317800EB0110318A41
:103D2000A0F80C14F069A8B3317834F821004304EA
:103D300001D5430603D444F24003184254D134F869
:103D40002100104048F2C002104324F821004BE04B
:103D50003CE0B1693069814202D9091AB16102E0DF
:103D60000846C6F818908BB9B4F850103278214440
:103D700001EB021101F2044168B13E2813D8420858
:103D8000C30700D0521C07EA82220A80717889B1E9
:103D9000012921D028E00A8822F4F8420A800A8802
:103DA00042F40042F1E74209C30600D1521E48EA3C
:103DB0008222EAE7B4F850103278214401EB021174
:103DC00001F20C4100287FF44BAF41E74209C006E5
:103DD0007FF450AF521E4DE7B4F8502011193278DD
:103DE00001EB0211A1F80C04317834F821004BF6F4
:103DF0008F72104080F4405040EA0A0024F82100FD
:103E0000002013E50021A0F844104FF43F41A0F832
:103E100040100020704700207047002070470000CD
:103E20000148FCF7C9BE000008170020B0F84400A4
:103E30007047000010B500EB42005C0800F58060A0
:103E400009D000BF30F8042B01F8012B120A01F849
:103E5000012B641EF6D1DA0701D00088087010BD6E
:103E60000020704711B98021A0F84C100020704745
:103E700010B55B1C00EB42005B0800F5806009D0C8
:103E800011F8012B11F8014B42EA042220F8042B0F
:103E90005B1EF5D110BDFEE770B5040300F026F9F6
:103EA00000F01CF90E4D002210212846FCF790FA74
:103EB000202000F0FDF8C4F3074000F0F9F8C4F347
:103EC000072000F0F5F8E0B200F0F2F8012210212E
:103ED0002846FCF77DFABDE8704000F0FFB800000E
:103EE0000008014010B5FDF771FE104C00221021B2
:103EF0002046FCF76DFAFF2000F0DAF801221021CD
:103F00002046FCF765FA00F06DF8094C208000F0BF
:103F10003DF8606004F1080000F0A2F821884FF439
:103F20006F40884301D04FF0FF3010BD00080140C2
:103F3000000000202DE9F041134F15460C460646BF
:103F4000002210213846FCF743FA032000F0B0F8B5
:103F5000C4F3074000F0ACF8C4F3072000F0A8F861
:103F6000E0B200F0A5F8002405E0FF2000F0A0F882
:103F70003055641CA4B2AC42F7D33846BDE8F041DA
:103F800001221021FCF724BA00080140F8B50024F2
:103F9000134E2246102130460094FCF719FA5A209D
:103FA00000F086F8002000F083F8002000F080F890
:103FB000842000F07DF8002000F07AF86D46FF20A4
:103FC00000F076F82855641C042CF8D30122102147
:103FD0003046FCF7FDF90098401CC008F8BD000011
:103FE0000008014070B5114D0024224610212846DA
:103FF000FCF7EEF9902000F05BF8002000F058F894
:10400000002000F055F8002000F052F8FF2000F0EA
:104010004FF844EA0024FF2000F04AF8044301224C
:1040200010212846FCF7D4F9204670BD0008014055
:1040300070B50A4D002210212846FCF7C9F9052069
:1040400000F036F8FF2000F033F80446012210217A
:104050002846FCF7BDF9204670BD0000000801406D
:1040600070B5124E05460024224610213046FCF75A
:10407000AFF94B2000F01CF8002000F019F80020E8
:1040800000F016F8002000F013F8002000F010F8FF
:10409000FF2000F00DF82855641C082CF8DB304692
:1040A000BDE8704001221021FCF792B900080140E0
:1040B00001B582B000208DF804000A200090012391
:1040C00001AA02A90448FDF793FA10B1FF208DF868
:1040D00004009DF804000EBD380100202DE91040B9
:1040E000FFF7A6FFC007FBD110BD000010B5084CBC
:1040F000002210212046FCF76BF90620FFF7D8FFBD
:1041000020460122BDE810401021FCF761B90000F3
:10411000000801402DE9F0410746C8B2C0F580749F
:104120000E461546A24200D814464FF48078224627
:104130003146384600F00EF8A54208D0281B274427
:10414000264485B24446A542F1D82C46EFE7BDE8A7
:10415000F08100002DE9F04115460C460646FFF7B8
:10416000C5FF134F002210213846FCF731F9022019
:10417000FFF79EFFC4F30740FFF79AFFC4F3072041
:10418000FFF796FFE0B2FFF793FF002404E0305DF5
:10419000FFF78EFF641CA4B2AC42F8D301221021B9
:1041A0003846FCF715F9BDE8F041FFF797BF00006E
:1041B000000801400907090E002804DB00F1E02097
:1041C00080F80014704700F00F0000F1E02080F844
:1041D000141D704702E008C8121F08C1002AFAD156
:1041E00070477047002001E001C1121F002AFBD177
:1041F0007047FCF701F9FEF754FAFDF7AFFCFDF745
:10420000E5FCFDF707FDFDF721FDFEE7008002025A
:104210001F0000002020202020202020434D534953
:10422000532D44415020202020202020302E30319A
:104230000000000000000000010203040607080956
:10424000000000000102030400000003008083005E
:104250000000000000000000060000000000000058
:104260008042000800000020380100009001000892
:104270002843000838010020C01C0000E441000869
:1042800001101381281B08B1041ABD041AE5041398
:104290000D291B0861081A8D041704030904120173
:1042A0003202164083042A57260201020301031A30
:1042B0001A031325261B0809041A33041A37041A93
:1042C0003B041A69041A2104130C421A083F118294
:1042D000105324F413A52E1B084104130B2F82083E
:1042E0001A2D101A3704C11A8D101A81041A990454
:1042F0001A7504140902202008010104C0320904BF
:10430000180A020806500507058102B02C070501AE
:10431000070914202240292019070B1C0907204BEC
:084320000A06FC29B4000000AC
:04000005080000ED02
:00000001FF
